:020000000F28C7
:10000800DE00030E8312A1000408A2000A08A30060
:100018005F08A400762810288312AF01B001B1014F
:10002800B2018301172883169F01073083129904B0
:10003800831685120510051583128501C1308316B4
:1000480081000B110B178B170B118B168312AC0148
:10005800AC0A0230AB004530AA00A930A900A90BB0
:100068003328AA0B3328AB0B33283A2802308312E3
:10007800AB004530AA00A930A900A90B4128AA0B5A
:100088004128AB0B4128482883122E08A9002908CB
:10009800AC00051D5228AE01AE0A5328AE012C084B
:1000A800031D48282E03031D48282B30AF000230BB
:1000B800B000B1173214B11B5F28AD0103302D0217
:1000C800031848282130AA007630A900A90B6A280D
:1000D800AA0B6A28000001308312A9002908AD077D
:1000E800622875280B1D9C28B730810032088500CE
:1000F800B11F9B28320EA000200C0139A00001304E
:10010800A006A00EA00D32082006DF392006B20096
:100118000130AF020030031CB003B0022F083004D6
:10012800031D9B287F30A0002008B10532100B1159
:100138002408DF0023088A0022088400210E830097
:06014800DE0E5E0E090050
:02400E009431EB
:00000001FF
